{
  "contractName": "ComeFundMe",
  "abi": [
    {
      "anonymous": false,
      "inputs": [
        {
          "indexed": false,
          "internalType": "bytes32",
          "name": "campaignId",
          "type": "bytes32"
        },
        {
          "indexed": false,
          "internalType": "address",
          "name": "donor",
          "type": "address"
        },
        {
          "indexed": false,
          "internalType": "uint256",
          "name": "amount",
          "type": "uint256"
        }
      ],
      "name": "CampaignDonationReceived",
      "type": "event"
    },
    {
      "anonymous": false,
      "inputs": [
        {
          "indexed": false,
          "internalType": "bytes32",
          "name": "campaignId",
          "type": "bytes32"
        },
        {
          "indexed": false,
          "internalType": "uint256",
          "name": "fundsRaised",
          "type": "uint256"
        }
      ],
      "name": "CampaignEnded",
      "type": "event"
    },
    {
      "anonymous": false,
      "inputs": [
        {
          "indexed": false,
          "internalType": "bytes32",
          "name": "campaignId",
          "type": "bytes32"
        }
      ],
      "name": "CampaignStarted",
      "type": "event"
    },
    {
      "anonymous": false,
      "inputs": [
        {
          "indexed": true,
          "internalType": "address",
          "name": "previousOwner",
          "type": "address"
        },
        {
          "indexed": true,
          "internalType": "address",
          "name": "newOwner",
          "type": "address"
        }
      ],
      "name": "OwnershipTransferred",
      "type": "event"
    },
    {
      "anonymous": false,
      "inputs": [
        {
          "indexed": false,
          "internalType": "address",
          "name": "account",
          "type": "address"
        }
      ],
      "name": "Paused",
      "type": "event"
    },
    {
      "anonymous": false,
      "inputs": [
        {
          "indexed": false,
          "internalType": "address",
          "name": "account",
          "type": "address"
        }
      ],
      "name": "Unpaused",
      "type": "event"
    },
    {
      "inputs": [],
      "name": "owner",
      "outputs": [
        {
          "internalType": "address",
          "name": "",
          "type": "address"
        }
      ],
      "stateMutability": "view",
      "type": "function",
      "constant": true
    },
    {
      "inputs": [],
      "name": "paused",
      "outputs": [
        {
          "internalType": "bool",
          "name": "",
          "type": "bool"
        }
      ],
      "stateMutability": "view",
      "type": "function",
      "constant": true
    },
    {
      "inputs": [],
      "name": "renounceOwnership",
      "outputs": [],
      "stateMutability": "nonpayable",
      "type": "function"
    },
    {
      "inputs": [
        {
          "internalType": "address",
          "name": "newOwner",
          "type": "address"
        }
      ],
      "name": "transferOwnership",
      "outputs": [],
      "stateMutability": "nonpayable",
      "type": "function"
    },
    {
      "inputs": [],
      "name": "togglePause",
      "outputs": [],
      "stateMutability": "nonpayable",
      "type": "function"
    },
    {
      "inputs": [
        {
          "internalType": "string",
          "name": "title",
          "type": "string"
        },
        {
          "internalType": "string",
          "name": "description",
          "type": "string"
        }
      ],
      "name": "startCampaign",
      "outputs": [],
      "stateMutability": "nonpayable",
      "type": "function"
    },
    {
      "inputs": [
        {
          "internalType": "bytes32",
          "name": "campaignId",
          "type": "bytes32"
        }
      ],
      "name": "endCampaign",
      "outputs": [],
      "stateMutability": "nonpayable",
      "type": "function"
    },
    {
      "inputs": [
        {
          "internalType": "bytes32",
          "name": "campaignId",
          "type": "bytes32"
        }
      ],
      "name": "donateToCampaign",
      "outputs": [],
      "stateMutability": "payable",
      "type": "function",
      "payable": true
    },
    {
      "inputs": [
        {
          "internalType": "bytes32",
          "name": "campaignId",
          "type": "bytes32"
        }
      ],
      "name": "getCampaign",
      "outputs": [
        {
          "components": [
            {
              "internalType": "bool",
              "name": "isAlive",
              "type": "bool"
            },
            {
              "internalType": "address",
              "name": "initiator",
              "type": "address"
            },
            {
              "internalType": "uint256",
              "name": "fundsRaised",
              "type": "uint256"
            },
            {
              "internalType": "string",
              "name": "title",
              "type": "string"
            },
            {
              "internalType": "string",
              "name": "description",
              "type": "string"
            }
          ],
          "internalType": "struct ComeFundMe.Campaign",
          "name": "",
          "type": "tuple"
        }
      ],
      "stateMutability": "view",
      "type": "function",
      "constant": true
    },
    {
      "inputs": [
        {
          "internalType": "address",
          "name": "initiator",
          "type": "address"
        },
        {
          "internalType": "string",
          "name": "title",
          "type": "string"
        },
        {
          "internalType": "string",
          "name": "description",
          "type": "string"
        }
      ],
      "name": "getCampaignId",
      "outputs": [
        {
          "internalType": "bytes32",
          "name": "",
          "type": "bytes32"
        }
      ],
      "stateMutability": "pure",
      "type": "function",
      "constant": true
    }
  ],
  "bytecode": "0x608060405234801561001057600080fd5b5061001a3361002c565b6000805460ff60a01b1916905561007c565b600080546001600160a01b038381166001600160a01b0319831681178455604051919092169283917f8be0079c531659141344cd1fd0a4f28419497f9722a3daafe3b4186f6b6457e09190a35050565b610dce8061008b6000396000f3fe6080604052600436106100915760003560e01c8063c4ae316811610059578063c4ae316814610144578063cabe045214610159578063e13475c814610186578063e1b8601614610199578063f2fde38b146101c757600080fd5b806329777bc6146100965780635c975abb146100b8578063715018a6146100e75780638c26a73d146100fc5780638da5cb5b1461011c575b600080fd5b3480156100a257600080fd5b506100b66100b1366004610b37565b6101e7565b005b3480156100c457600080fd5b50600054600160a01b900460ff1660405190151581526020015b60405180910390f35b3480156100f357600080fd5b506100b661034a565b34801561010857600080fd5b506100b6610117366004610b4f565b610380565b34801561012857600080fd5b506000546040516001600160a01b0390911681526020016100de565b34801561015057600080fd5b506100b66104b5565b34801561016557600080fd5b50610179610174366004610b37565b610500565b6040516100de9190610ccf565b6100b6610194366004610b37565b61069e565b3480156101a557600080fd5b506101b96101b4366004610ab9565b61076f565b6040519081526020016100de565b3480156101d357600080fd5b506100b66101e2366004610a98565b6107ab565b600054600160a01b900460ff161561021a5760405162461bcd60e51b815260040161021190610c70565b60405180910390fd5b600081815260016020526040902080546001600160a01b0361010090910416331461027c5760405162461bcd60e51b81526020600482015260126024820152712737ba1031b0b6b830b4b3b71037bbb732b960711b6044820152606401610211565b805460ff166102bd5760405162461bcd60e51b815260206004820152600d60248201526c105b1c9958591e48195b991959609a1b6044820152606401610211565b805460ff191680825560018201546040516101009092046001600160a01b0316916108fc82150291906000818181858888f19350505050158015610305573d6000803e3d6000fd5b5060018101546040805184815260208101929092527f9d66a5806d3b6212b52c01c830bb2233bd5e58aff556c57c924f026dffbfda2991015b60405180910390a15050565b6000546001600160a01b031633146103745760405162461bcd60e51b815260040161021190610c9a565b61037e6000610846565b565b600054600160a01b900460ff16156103aa5760405162461bcd60e51b815260040161021190610c70565b60006103b9338686868661076f565b600081815260016020526040902080549192509060ff161580156103ea5750805461010090046001600160a01b0316155b6104285760405162461bcd60e51b815260206004820152600f60248201526e43616d706169676e2065786973747360881b6044820152606401610211565b805460ff1916600117815561043a3390565b81546001600160a01b039190911661010002610100600160a81b031990911617815561046a60028201878761099c565b5061047960038201858561099c565b506040518281527f9bb2c9788fbe26c00be74305fbebeb1b918f56515eb45a297d2105decae3755f9060200160405180910390a1505050505050565b6000546001600160a01b031633146104df5760405162461bcd60e51b815260040161021190610c9a565b600054600160a01b900460ff166104f85761037e610896565b61037e610918565b6040805160a0810182526000808252602082018190529181019190915260608082018190526080820152600082815260016020818152604092839020835160a081018552815460ff81161515825261010090046001600160a01b031692810192909252918201549281019290925260028101805460608401919061058390610d5d565b80601f01602080910402602001604051908101604052809291908181526020018280546105af90610d5d565b80156105fc5780601f106105d1576101008083540402835291602001916105fc565b820191906000526020600020905b8154815290600101906020018083116105df57829003601f168201915b5050505050815260200160038201805461061590610d5d565b80601f016020809104026020016040519081016040528092919081815260200182805461064190610d5d565b801561068e5780601f106106635761010080835404028352916020019161068e565b820191906000526020600020905b81548152906001019060200180831161067157829003601f168201915b5050505050815250509050919050565b600054600160a01b900460ff16156106c85760405162461bcd60e51b815260040161021190610c70565b6000818152600160205260409020805460ff166107175760405162461bcd60e51b815260206004820152600d60248201526c105b1c9958591e48195b991959609a1b6044820152606401610211565b3481600101600082825461072b9190610d39565b90915550506040805183815233602082015234918101919091527f9923008504d88018be8237b38fc9e7fe856efd8a47be5adf7c6ee48fff5beb219060600161033e565b6000858585858560405160200161078a959493929190610c2c565b60405160208183030381529060405280519060200120905095945050505050565b6000546001600160a01b031633146107d55760405162461bcd60e51b815260040161021190610c9a565b6001600160a01b03811661083a5760405162461bcd60e51b815260206004820152602660248201527f4f776e61626c653a206e6577206f776e657220697320746865207a65726f206160448201526564647265737360d01b6064820152608401610211565b61084381610846565b50565b600080546001600160a01b038381166001600160a01b0319831681178455604051919092169283917f8be0079c531659141344cd1fd0a4f28419497f9722a3daafe3b4186f6b6457e09190a35050565b600054600160a01b900460ff16156108c05760405162461bcd60e51b815260040161021190610c70565b6000805460ff60a01b1916600160a01b1790557f62e78cea01bee320cd4e420270b5ea74000d11b0c9f74754ebdbfc544b05a2586108fb3390565b6040516001600160a01b03909116815260200160405180910390a1565b600054600160a01b900460ff166109685760405162461bcd60e51b815260206004820152601460248201527314185d5cd8589b194e881b9bdd081c185d5cd95960621b6044820152606401610211565b6000805460ff60a01b191690557f5db9ee0a495bf2e6ff9c91a7834c1ba4fdd244a5e8aa4e537bd38aeae4b073aa336108fb565b8280546109a890610d5d565b90600052602060002090601f0160209004810192826109ca5760008555610a10565b82601f106109e35782800160ff19823516178555610a10565b82800160010185558215610a10579182015b82811115610a105782358255916020019190600101906109f5565b50610a1c929150610a20565b5090565b5b80821115610a1c5760008155600101610a21565b80356001600160a01b0381168114610a4c57600080fd5b919050565b60008083601f840112610a62578182fd5b50813567ffffffffffffffff811115610a79578182fd5b602083019150836020828501011115610a9157600080fd5b9250929050565b600060208284031215610aa9578081fd5b610ab282610a35565b9392505050565b600080600080600060608688031215610ad0578081fd5b610ad986610a35565b9450602086013567ffffffffffffffff80821115610af5578283fd5b610b0189838a01610a51565b90965094506040880135915080821115610b19578283fd5b50610b2688828901610a51565b969995985093965092949392505050565b600060208284031215610b48578081fd5b5035919050565b60008060008060408587031215610b64578384fd5b843567ffffffffffffffff80821115610b7b578586fd5b610b8788838901610a51565b90965094506020870135915080821115610b9f578384fd5b50610bac87828801610a51565b95989497509550505050565b81835281816020850137506000828201602090810191909152601f909101601f19169091010190565b60008151808452815b81811015610c0657602081850181015186830182015201610bea565b81811115610c175782602083870101525b50601f01601f19169290920160200192915050565b6001600160a01b0386168152606060208201819052600090610c519083018688610bb8565b8281036040840152610c64818587610bb8565b98975050505050505050565b60208082526010908201526f14185d5cd8589b194e881c185d5cd95960821b604082015260600190565b6020808252818101527f4f776e61626c653a2063616c6c6572206973206e6f7420746865206f776e6572604082015260600190565b6020815281511515602082015260018060a01b036020830151166040820152604082015160608201526000606083015160a06080840152610d1360c0840182610be1565b90506080840151601f198483030160a0850152610d308282610be1565b95945050505050565b60008219821115610d5857634e487b7160e01b81526011600452602481fd5b500190565b600181811c90821680610d7157607f821691505b60208210811415610d9257634e487b7160e01b600052602260045260246000fd5b5091905056fea2646970667358221220813e865201111a25fb9cb7daea1b03653fe00b271547e1e3d925db91ad8e9fad64736f6c63430008040033",
  "immutableReferences": {},
  "source": "//SPDX-License-Identifier: UNLICENSED\r\npragma solidity ^0.8.0;\r\n\r\nimport \"@openzeppelin/contracts/access/Ownable.sol\";\r\nimport \"@openzeppelin/contracts/security/Pausable.sol\";\r\n\r\ncontract ComeFundMe is Ownable, Pausable {\r\n    struct Campaign {\r\n        bool isAlive;\r\n        address initiator;\r\n        uint256 fundsRaised;\r\n        string title;\r\n        string description;\r\n    }\r\n    mapping(bytes32 => Campaign) private _campaigns;\r\n\r\n    event CampaignStarted(bytes32 campaignId);\r\n    event CampaignEnded(bytes32 campaignId, uint256 fundsRaised);\r\n    event CampaignDonationReceived(\r\n        bytes32 campaignId,\r\n        address donor,\r\n        uint256 amount\r\n    );\r\n\r\n    /**\r\n        @notice Toggles the pause status using ternary operators\r\n        @dev If paused() is true, then we unpause. Else, pause.\r\n     */\r\n    function togglePause() external onlyOwner {\r\n        paused() ? _unpause() : _pause();\r\n    }\r\n\r\n    /**\r\n        @notice Starts a fundraising campaign\r\n        @param title The title of this new campaign (to be displayed on a website, for example)\r\n        @param description The description of this new campaign (to be displayed on a website, for example)\r\n     */\r\n    function startCampaign(string calldata title, string calldata description)\r\n        external\r\n        whenNotPaused\r\n    {\r\n        bytes32 campaignId = getCampaignId(_msgSender(), title, description);\r\n        Campaign storage c = _campaigns[campaignId];\r\n        require(!c.isAlive && c.initiator == address(0), \"Campaign exists\");\r\n        c.isAlive = true;\r\n        c.initiator = _msgSender();\r\n        c.title = title;\r\n        c.description = description;\r\n        emit CampaignStarted(campaignId);\r\n    }\r\n\r\n    /**\r\n        @notice Ends a fundraising campaign, all raised funds transferred to the initiator\r\n        @dev Can only be called by the campaign initiator\r\n        @param campaignId The ID of the campaign that we are trying to end\r\n     */\r\n    function endCampaign(bytes32 campaignId) external whenNotPaused {\r\n        Campaign storage c = _campaigns[campaignId];\r\n        require(c.initiator == _msgSender(), \"Not campaign owner\");\r\n        require(c.isAlive, \"Already ended\");\r\n        c.isAlive = false;\r\n        payable(c.initiator).transfer(c.fundsRaised);\r\n        emit CampaignEnded(campaignId, c.fundsRaised);\r\n    }\r\n\r\n    /**\r\n        @notice Donates ETH to a certain campaign\r\n        @param campaignId The ID of the campaign that we are trying to donate to\r\n     */\r\n    function donateToCampaign(bytes32 campaignId)\r\n        external\r\n        payable\r\n        whenNotPaused\r\n    {\r\n        Campaign storage c = _campaigns[campaignId];\r\n        require(c.isAlive, \"Already ended\");\r\n        c.fundsRaised += msg.value;\r\n        emit CampaignDonationReceived(campaignId, _msgSender(), msg.value);\r\n    }\r\n\r\n    /**\r\n        @notice Returns information for a specific campaign\r\n        @param campaignId The ID of the campaign that we are trying to query\r\n        @return A struct containing information about the given campaign\r\n     */\r\n    function getCampaign(bytes32 campaignId)\r\n        external\r\n        view\r\n        returns (Campaign memory)\r\n    {\r\n        return _campaigns[campaignId];\r\n    }\r\n\r\n    /**\r\n        @notice Generates a campaign ID given identifying information\r\n        @param initiator The initiator of the campaign\r\n        @param title The title of the campaign\r\n        @param description The description of the campaign\r\n        @return The generated campaign ID\r\n     */\r\n    function getCampaignId(\r\n        address initiator,\r\n        string calldata title,\r\n        string calldata description\r\n    ) public pure returns (bytes32) {\r\n        return keccak256(abi.encode(initiator, title, description));\r\n    }\r\n}\r\n",
  "sourcePath": "C:\\Users\\Nicolas\\Desktop\\itp356\\hw5-nneven\\contracts\\ComeFundMe.sol",
  "compiler": {
    "name": "solc",
    "version": "0.8.4+commit.c7e474f2.Emscripten.clang"
  },
  "schemaVersion": "3.4.6",
  "updatedAt": "2022-03-20T22:30:22.088Z",
  "networkType": "ethereum",
  "devdoc": {
    "kind": "dev",
    "methods": {
      "donateToCampaign(bytes32)": {
        "params": {
          "campaignId": "The ID of the campaign that we are trying to donate to"
        }
      },
      "endCampaign(bytes32)": {
        "details": "Can only be called by the campaign initiator",
        "params": {
          "campaignId": "The ID of the campaign that we are trying to end"
        }
      },
      "getCampaign(bytes32)": {
        "params": {
          "campaignId": "The ID of the campaign that we are trying to query"
        },
        "returns": {
          "_0": "A struct containing information about the given campaign"
        }
      },
      "getCampaignId(address,string,string)": {
        "params": {
          "description": "The description of the campaign",
          "initiator": "The initiator of the campaign",
          "title": "The title of the campaign"
        },
        "returns": {
          "_0": "The generated campaign ID"
        }
      },
      "owner()": {
        "details": "Returns the address of the current owner."
      },
      "paused()": {
        "details": "Returns true if the contract is paused, and false otherwise."
      },
      "renounceOwnership()": {
        "details": "Leaves the contract without owner. It will not be possible to call `onlyOwner` functions anymore. Can only be called by the current owner. NOTE: Renouncing ownership will leave the contract without an owner, thereby removing any functionality that is only available to the owner."
      },
      "startCampaign(string,string)": {
        "params": {
          "description": "The description of this new campaign (to be displayed on a website, for example)",
          "title": "The title of this new campaign (to be displayed on a website, for example)"
        }
      },
      "togglePause()": {
        "details": "If paused() is true, then we unpause. Else, pause."
      },
      "transferOwnership(address)": {
        "details": "Transfers ownership of the contract to a new account (`newOwner`). Can only be called by the current owner."
      }
    },
    "version": 1
  },
  "userdoc": {
    "kind": "user",
    "methods": {
      "donateToCampaign(bytes32)": {
        "notice": "Donates ETH to a certain campaign"
      },
      "endCampaign(bytes32)": {
        "notice": "Ends a fundraising campaign, all raised funds transferred to the initiator"
      },
      "getCampaign(bytes32)": {
        "notice": "Returns information for a specific campaign"
      },
      "getCampaignId(address,string,string)": {
        "notice": "Generates a campaign ID given identifying information"
      },
      "startCampaign(string,string)": {
        "notice": "Starts a fundraising campaign"
      },
      "togglePause()": {
        "notice": "Toggles the pause status using ternary operators"
      }
    },
    "version": 1
  }
}