{
  "contractName": "ComeFundMeV2",
  "abi": [
    {
      "anonymous": false,
      "inputs": [
        {
          "indexed": false,
          "internalType": "bytes32",
          "name": "campaignId",
          "type": "bytes32"
        },
        {
          "indexed": false,
          "internalType": "address",
          "name": "donor",
          "type": "address"
        },
        {
          "indexed": false,
          "internalType": "uint256",
          "name": "amount",
          "type": "uint256"
        }
      ],
      "name": "CampaignDonationReceived",
      "type": "event"
    },
    {
      "anonymous": false,
      "inputs": [
        {
          "indexed": false,
          "internalType": "bytes32",
          "name": "campaignId",
          "type": "bytes32"
        },
        {
          "indexed": false,
          "internalType": "uint256",
          "name": "fundsRaised",
          "type": "uint256"
        }
      ],
      "name": "CampaignEnded",
      "type": "event"
    },
    {
      "anonymous": false,
      "inputs": [
        {
          "indexed": false,
          "internalType": "bytes32",
          "name": "campaignId",
          "type": "bytes32"
        }
      ],
      "name": "CampaignStarted",
      "type": "event"
    },
    {
      "anonymous": false,
      "inputs": [
        {
          "indexed": true,
          "internalType": "address",
          "name": "previousOwner",
          "type": "address"
        },
        {
          "indexed": true,
          "internalType": "address",
          "name": "newOwner",
          "type": "address"
        }
      ],
      "name": "OwnershipTransferred",
      "type": "event"
    },
    {
      "anonymous": false,
      "inputs": [
        {
          "indexed": false,
          "internalType": "address",
          "name": "account",
          "type": "address"
        }
      ],
      "name": "Paused",
      "type": "event"
    },
    {
      "anonymous": false,
      "inputs": [
        {
          "indexed": false,
          "internalType": "address",
          "name": "account",
          "type": "address"
        }
      ],
      "name": "Unpaused",
      "type": "event"
    },
    {
      "inputs": [],
      "name": "owner",
      "outputs": [
        {
          "internalType": "address",
          "name": "",
          "type": "address"
        }
      ],
      "stateMutability": "view",
      "type": "function"
    },
    {
      "inputs": [],
      "name": "paused",
      "outputs": [
        {
          "internalType": "bool",
          "name": "",
          "type": "bool"
        }
      ],
      "stateMutability": "view",
      "type": "function"
    },
    {
      "inputs": [],
      "name": "renounceOwnership",
      "outputs": [],
      "stateMutability": "nonpayable",
      "type": "function"
    },
    {
      "inputs": [
        {
          "internalType": "address",
          "name": "newOwner",
          "type": "address"
        }
      ],
      "name": "transferOwnership",
      "outputs": [],
      "stateMutability": "nonpayable",
      "type": "function"
    },
    {
      "inputs": [],
      "name": "togglePause",
      "outputs": [],
      "stateMutability": "nonpayable",
      "type": "function"
    },
    {
      "inputs": [
        {
          "internalType": "string",
          "name": "title",
          "type": "string"
        },
        {
          "internalType": "string",
          "name": "description",
          "type": "string"
        },
        {
          "internalType": "uint256",
          "name": "deadline",
          "type": "uint256"
        }
      ],
      "name": "startCampaign",
      "outputs": [],
      "stateMutability": "nonpayable",
      "type": "function"
    },
    {
      "inputs": [
        {
          "internalType": "bytes32",
          "name": "campaignId",
          "type": "bytes32"
        }
      ],
      "name": "endCampaign",
      "outputs": [],
      "stateMutability": "nonpayable",
      "type": "function"
    },
    {
      "inputs": [
        {
          "internalType": "bytes32",
          "name": "campaignId",
          "type": "bytes32"
        }
      ],
      "name": "donateToCampaign",
      "outputs": [],
      "stateMutability": "payable",
      "type": "function"
    },
    {
      "inputs": [
        {
          "internalType": "bytes32",
          "name": "campaignId",
          "type": "bytes32"
        },
        {
          "internalType": "uint256",
          "name": "amount",
          "type": "uint256"
        }
      ],
      "name": "withdrawFromCampaign",
      "outputs": [],
      "stateMutability": "nonpayable",
      "type": "function"
    },
    {
      "inputs": [
        {
          "internalType": "bytes32",
          "name": "campaignId",
          "type": "bytes32"
        }
      ],
      "name": "getCampaign",
      "outputs": [
        {
          "components": [
            {
              "internalType": "bool",
              "name": "isAlive",
              "type": "bool"
            },
            {
              "internalType": "address",
              "name": "initiator",
              "type": "address"
            },
            {
              "internalType": "uint256",
              "name": "fundsRaised",
              "type": "uint256"
            },
            {
              "internalType": "string",
              "name": "title",
              "type": "string"
            },
            {
              "internalType": "string",
              "name": "description",
              "type": "string"
            },
            {
              "internalType": "uint256",
              "name": "deadline",
              "type": "uint256"
            }
          ],
          "internalType": "struct ComeFundMeV2.Campaign",
          "name": "",
          "type": "tuple"
        }
      ],
      "stateMutability": "view",
      "type": "function"
    },
    {
      "inputs": [
        {
          "internalType": "address",
          "name": "initiator",
          "type": "address"
        },
        {
          "internalType": "string",
          "name": "title",
          "type": "string"
        },
        {
          "internalType": "string",
          "name": "description",
          "type": "string"
        }
      ],
      "name": "getCampaignId",
      "outputs": [
        {
          "internalType": "bytes32",
          "name": "",
          "type": "bytes32"
        }
      ],
      "stateMutability": "pure",
      "type": "function"
    }
  ],
  "bytecode": "0x608060405234801561001057600080fd5b5061001a3361002c565b6000805460ff60a01b1916905561007c565b600080546001600160a01b038381166001600160a01b0319831681178455604051919092169283917f8be0079c531659141344cd1fd0a4f28419497f9722a3daafe3b4186f6b6457e09190a35050565b610fdc8061008b6000396000f3fe60806040526004361061009c5760003560e01c80638da5cb5b116100645780638da5cb5b14610147578063c4ae31681461016f578063cabe045214610184578063e13475c8146101b1578063e1b86016146101c4578063f2fde38b146101f257600080fd5b8063099d4b92146100a157806329777bc6146100c35780635c975abb146100e3578063715018a6146101125780637a15471d14610127575b600080fd5b3480156100ad57600080fd5b506100c16100bc366004610d05565b610212565b005b3480156100cf57600080fd5b506100c16100de366004610ced565b6102e9565b3480156100ef57600080fd5b50600054600160a01b900460ff1660405190151581526020015b60405180910390f35b34801561011e57600080fd5b506100c161048a565b34801561013357600080fd5b506100c1610142366004610d26565b6104c0565b34801561015357600080fd5b506000546040516001600160a01b039091168152602001610109565b34801561017b57600080fd5b506100c16105fd565b34801561019057600080fd5b506101a461019f366004610ced565b610648565b6040516101099190610eae565b6100c16101bf366004610ced565b61080a565b3480156101d057600080fd5b506101e46101df366004610c6f565b610925565b604051908152602001610109565b3480156101fe57600080fd5b506100c161020d366004610c4e565b610961565b600054600160a01b900460ff16156102455760405162461bcd60e51b815260040161023c90610e4f565b60405180910390fd5b6000828152600160205260409020600481015443111561029d5760405162461bcd60e51b8152602060048201526013602482015272111958591b1a5b99481a185cc81c185cdcd959606a1b604482015260640161023c565b604051339083156108fc029084906000818181858888f193505050501580156102ca573d6000803e3d6000fd5b50818160010160008282546102df9190610f3e565b9091555050505050565b600054600160a01b900460ff16156103135760405162461bcd60e51b815260040161023c90610e4f565b6000818152600160205260409020600481015443116103685760405162461bcd60e51b81526020600482015260116024820152704e6f74207061737420646561646c696e6560781b604482015260640161023c565b80546001600160a01b036101009091041633146103bc5760405162461bcd60e51b81526020600482015260126024820152712737ba1031b0b6b830b4b3b71037bbb732b960711b604482015260640161023c565b805460ff166103fd5760405162461bcd60e51b815260206004820152600d60248201526c105b1c9958591e48195b991959609a1b604482015260640161023c565b805460ff191680825560018201546040516101009092046001600160a01b0316916108fc82150291906000818181858888f19350505050158015610445573d6000803e3d6000fd5b5060018101546040805184815260208101929092527f9d66a5806d3b6212b52c01c830bb2233bd5e58aff556c57c924f026dffbfda2991015b60405180910390a15050565b6000546001600160a01b031633146104b45760405162461bcd60e51b815260040161023c90610e79565b6104be60006109fc565b565b600054600160a01b900460ff16156104ea5760405162461bcd60e51b815260040161023c90610e4f565b60006104f93387878787610925565b600081815260016020526040902080549192509060ff1615801561052a5750805461010090046001600160a01b0316155b6105685760405162461bcd60e51b815260206004820152600f60248201526e43616d706169676e2065786973747360881b604482015260640161023c565b805460ff1916600117815561057a3390565b81546001600160a01b039190911661010002610100600160a81b03199091161781556105aa600282018888610b52565b506105b9600382018686610b52565b50600481018390556040518281527f9bb2c9788fbe26c00be74305fbebeb1b918f56515eb45a297d2105decae3755f9060200160405180910390a150505050505050565b6000546001600160a01b031633146106275760405162461bcd60e51b815260040161023c90610e79565b600054600160a01b900460ff16610640576104be610a4c565b6104be610ace565b61068c6040518060c0016040528060001515815260200160006001600160a01b03168152602001600081526020016060815260200160608152602001600081525090565b600082815260016020818152604092839020835160c081018552815460ff81161515825261010090046001600160a01b03169281019290925291820154928101929092526002810180546060840191906106e590610f55565b80601f016020809104026020016040519081016040528092919081815260200182805461071190610f55565b801561075e5780601f106107335761010080835404028352916020019161075e565b820191906000526020600020905b81548152906001019060200180831161074157829003601f168201915b5050505050815260200160038201805461077790610f55565b80601f01602080910402602001604051908101604052809291908181526020018280546107a390610f55565b80156107f05780601f106107c5576101008083540402835291602001916107f0565b820191906000526020600020905b8154815290600101906020018083116107d357829003601f168201915b505050505081526020016004820154815250509050919050565b600054600160a01b900460ff16156108345760405162461bcd60e51b815260040161023c90610e4f565b6000818152600160205260409020600481015443111561088c5760405162461bcd60e51b8152602060048201526013602482015272111958591b1a5b99481a185cc81c185cdcd959606a1b604482015260640161023c565b805460ff166108cd5760405162461bcd60e51b815260206004820152600d60248201526c105b1c9958591e48195b991959609a1b604482015260640161023c565b348160010160008282546108e19190610f26565b90915550506040805183815233602082015234918101919091527f9923008504d88018be8237b38fc9e7fe856efd8a47be5adf7c6ee48fff5beb219060600161047e565b60008585858585604051602001610940959493929190610e0b565b60405160208183030381529060405280519060200120905095945050505050565b6000546001600160a01b0316331461098b5760405162461bcd60e51b815260040161023c90610e79565b6001600160a01b0381166109f05760405162461bcd60e51b815260206004820152602660248201527f4f776e61626c653a206e6577206f776e657220697320746865207a65726f206160448201526564647265737360d01b606482015260840161023c565b6109f9816109fc565b50565b600080546001600160a01b038381166001600160a01b0319831681178455604051919092169283917f8be0079c531659141344cd1fd0a4f28419497f9722a3daafe3b4186f6b6457e09190a35050565b600054600160a01b900460ff1615610a765760405162461bcd60e51b815260040161023c90610e4f565b6000805460ff60a01b1916600160a01b1790557f62e78cea01bee320cd4e420270b5ea74000d11b0c9f74754ebdbfc544b05a258610ab13390565b6040516001600160a01b03909116815260200160405180910390a1565b600054600160a01b900460ff16610b1e5760405162461bcd60e51b815260206004820152601460248201527314185d5cd8589b194e881b9bdd081c185d5cd95960621b604482015260640161023c565b6000805460ff60a01b191690557f5db9ee0a495bf2e6ff9c91a7834c1ba4fdd244a5e8aa4e537bd38aeae4b073aa33610ab1565b828054610b5e90610f55565b90600052602060002090601f016020900481019282610b805760008555610bc6565b82601f10610b995782800160ff19823516178555610bc6565b82800160010185558215610bc6579182015b82811115610bc6578235825591602001919060010190610bab565b50610bd2929150610bd6565b5090565b5b80821115610bd25760008155600101610bd7565b80356001600160a01b0381168114610c0257600080fd5b919050565b60008083601f840112610c18578182fd5b50813567ffffffffffffffff811115610c2f578182fd5b602083019150836020828501011115610c4757600080fd5b9250929050565b600060208284031215610c5f578081fd5b610c6882610beb565b9392505050565b600080600080600060608688031215610c86578081fd5b610c8f86610beb565b9450602086013567ffffffffffffffff80821115610cab578283fd5b610cb789838a01610c07565b90965094506040880135915080821115610ccf578283fd5b50610cdc88828901610c07565b969995985093965092949392505050565b600060208284031215610cfe578081fd5b5035919050565b60008060408385031215610d17578182fd5b50508035926020909101359150565b600080600080600060608688031215610d3d578081fd5b853567ffffffffffffffff80821115610d54578283fd5b610d6089838a01610c07565b90975095506020880135915080821115610d78578283fd5b50610d8588828901610c07565b96999598509660400135949350505050565b81835281816020850137506000828201602090810191909152601f909101601f19169091010190565b60008151808452815b81811015610de557602081850181015186830182015201610dc9565b81811115610df65782602083870101525b50601f01601f19169290920160200192915050565b6001600160a01b0386168152606060208201819052600090610e309083018688610d97565b8281036040840152610e43818587610d97565b98975050505050505050565b60208082526010908201526f14185d5cd8589b194e881c185d5cd95960821b604082015260600190565b6020808252818101527f4f776e61626c653a2063616c6c6572206973206e6f7420746865206f776e6572604082015260600190565b6020815281511515602082015260018060a01b036020830151166040820152604082015160608201526000606083015160c06080840152610ef260e0840182610dc0565b90506080840151601f198483030160a0850152610f0f8282610dc0565b91505060a084015160c08401528091505092915050565b60008219821115610f3957610f39610f90565b500190565b600082821015610f5057610f50610f90565b500390565b600181811c90821680610f6957607f821691505b60208210811415610f8a57634e487b7160e01b600052602260045260246000fd5b50919050565b634e487b7160e01b600052601160045260246000fdfea26469706673582212208b57bed451b1c86edd5455e2c8e267f7c2eeee8bab08cd50181f39f038b9a14164736f6c63430008040033",
  "immutableReferences": {},
  "source": "//SPDX-License-Identifier: UNLICENSED\r\npragma solidity ^0.8.0;\r\n\r\nimport \"@openzeppelin/contracts/access/Ownable.sol\";\r\nimport \"@openzeppelin/contracts/security/Pausable.sol\";\r\n\r\ncontract ComeFundMeV2 is Ownable, Pausable {\r\n    struct Campaign {\r\n        bool isAlive;\r\n        address initiator;\r\n        uint256 fundsRaised;\r\n        string title;\r\n        string description;\r\n        uint256 deadline;\r\n    }\r\n    mapping(bytes32 => Campaign) private _campaigns;\r\n\r\n    event CampaignStarted(bytes32 campaignId);\r\n    event CampaignEnded(bytes32 campaignId, uint256 fundsRaised);\r\n    event CampaignDonationReceived(\r\n        bytes32 campaignId,\r\n        address donor,\r\n        uint256 amount\r\n    );\r\n\r\n    /**\r\n        @notice Toggles the pause status using ternary operators\r\n        @dev If paused() is true, then we unpause. Else, pause.\r\n     */\r\n    function togglePause() external onlyOwner {\r\n        paused() ? _unpause() : _pause();\r\n    }\r\n\r\n    /**\r\n        @notice Starts a fundraising campaign\r\n        @param title The title of this new campaign (to be displayed on a website, for example)\r\n        @param description The description of this new campaign (to be displayed on a website, for example)\r\n     */\r\n    function startCampaign(\r\n        string calldata title,\r\n        string calldata description,\r\n        uint256 deadline\r\n    ) external whenNotPaused {\r\n        bytes32 campaignId = getCampaignId(_msgSender(), title, description);\r\n        Campaign storage c = _campaigns[campaignId];\r\n        require(!c.isAlive && c.initiator == address(0), \"Campaign exists\");\r\n        c.isAlive = true;\r\n        c.initiator = _msgSender();\r\n        c.title = title;\r\n        c.description = description;\r\n        c.deadline = deadline;\r\n        emit CampaignStarted(campaignId);\r\n    }\r\n\r\n    /**\r\n        @notice Ends a fundraising campaign, all raised funds transferred to the initiator\r\n        @dev Can only be called by the campaign initiator\r\n        @param campaignId The ID of the campaign that we are trying to end\r\n     */\r\n    function endCampaign(bytes32 campaignId) external whenNotPaused {\r\n        Campaign storage c = _campaigns[campaignId];\r\n        require(c.deadline < block.number, \"Not past deadline\");\r\n        require(c.initiator == _msgSender(), \"Not campaign owner\");\r\n        require(c.isAlive, \"Already ended\");\r\n        c.isAlive = false;\r\n        payable(c.initiator).transfer(c.fundsRaised);\r\n        emit CampaignEnded(campaignId, c.fundsRaised);\r\n    }\r\n\r\n    /**\r\n        @notice Donates ETH to a certain campaign\r\n        @param campaignId The ID of the campaign that we are trying to donate to\r\n     */\r\n    function donateToCampaign(bytes32 campaignId)\r\n        external\r\n        payable\r\n        whenNotPaused\r\n    {\r\n        Campaign storage c = _campaigns[campaignId];\r\n        require(c.deadline >= block.number, \"Deadline has passed\");\r\n        require(c.isAlive, \"Already ended\");\r\n        c.fundsRaised += msg.value;\r\n        emit CampaignDonationReceived(campaignId, _msgSender(), msg.value);\r\n    }\r\n\r\n    /**\r\n        @notice Withdraws ETH from a certain campaign if deadline has not passed\r\n        @param campaignId The ID of the campaign that we are trying to withdraw from\r\n        @param amount The amount to withdraw from the campaign to the user\r\n     */\r\n    function withdrawFromCampaign(bytes32 campaignId, uint256 amount)\r\n        external\r\n        whenNotPaused\r\n    {\r\n        Campaign storage c = _campaigns[campaignId];\r\n        require(c.deadline >= block.number, \"Deadline has passed\");\r\n        payable(msg.sender).transfer(amount);\r\n        c.fundsRaised -= amount;\r\n    }\r\n\r\n    /**\r\n        @notice Returns information for a specific campaign\r\n        @param campaignId The ID of the campaign that we are trying to query\r\n        @return A struct containing information about the given campaign\r\n     */\r\n    function getCampaign(bytes32 campaignId)\r\n        external\r\n        view\r\n        returns (Campaign memory)\r\n    {\r\n        return _campaigns[campaignId];\r\n    }\r\n\r\n    /**\r\n        @notice Generates a campaign ID given identifying information\r\n        @param initiator The initiator of the campaign\r\n        @param title The title of the campaign\r\n        @param description The description of the campaign\r\n        @return The generated campaign ID\r\n     */\r\n    function getCampaignId(\r\n        address initiator,\r\n        string calldata title,\r\n        string calldata description\r\n    ) public pure returns (bytes32) {\r\n        return keccak256(abi.encode(initiator, title, description));\r\n    }\r\n}\r\n",
  "sourcePath": "C:\\Users\\Nicolas\\Desktop\\itp356\\hw5-nneven\\contracts\\ComeFundMeV2.sol",
  "compiler": {
    "name": "solc",
    "version": "0.8.4+commit.c7e474f2.Emscripten.clang"
  },
  "schemaVersion": "3.4.6",
  "updatedAt": "2022-03-20T22:30:08.761Z",
  "devdoc": {
    "kind": "dev",
    "methods": {
      "donateToCampaign(bytes32)": {
        "params": {
          "campaignId": "The ID of the campaign that we are trying to donate to"
        }
      },
      "endCampaign(bytes32)": {
        "details": "Can only be called by the campaign initiator",
        "params": {
          "campaignId": "The ID of the campaign that we are trying to end"
        }
      },
      "getCampaign(bytes32)": {
        "params": {
          "campaignId": "The ID of the campaign that we are trying to query"
        },
        "returns": {
          "_0": "A struct containing information about the given campaign"
        }
      },
      "getCampaignId(address,string,string)": {
        "params": {
          "description": "The description of the campaign",
          "initiator": "The initiator of the campaign",
          "title": "The title of the campaign"
        },
        "returns": {
          "_0": "The generated campaign ID"
        }
      },
      "owner()": {
        "details": "Returns the address of the current owner."
      },
      "paused()": {
        "details": "Returns true if the contract is paused, and false otherwise."
      },
      "renounceOwnership()": {
        "details": "Leaves the contract without owner. It will not be possible to call `onlyOwner` functions anymore. Can only be called by the current owner. NOTE: Renouncing ownership will leave the contract without an owner, thereby removing any functionality that is only available to the owner."
      },
      "startCampaign(string,string,uint256)": {
        "params": {
          "description": "The description of this new campaign (to be displayed on a website, for example)",
          "title": "The title of this new campaign (to be displayed on a website, for example)"
        }
      },
      "togglePause()": {
        "details": "If paused() is true, then we unpause. Else, pause."
      },
      "transferOwnership(address)": {
        "details": "Transfers ownership of the contract to a new account (`newOwner`). Can only be called by the current owner."
      },
      "withdrawFromCampaign(bytes32,uint256)": {
        "params": {
          "amount": "The amount to withdraw from the campaign to the user",
          "campaignId": "The ID of the campaign that we are trying to withdraw from"
        }
      }
    },
    "version": 1
  },
  "userdoc": {
    "kind": "user",
    "methods": {
      "donateToCampaign(bytes32)": {
        "notice": "Donates ETH to a certain campaign"
      },
      "endCampaign(bytes32)": {
        "notice": "Ends a fundraising campaign, all raised funds transferred to the initiator"
      },
      "getCampaign(bytes32)": {
        "notice": "Returns information for a specific campaign"
      },
      "getCampaignId(address,string,string)": {
        "notice": "Generates a campaign ID given identifying information"
      },
      "startCampaign(string,string,uint256)": {
        "notice": "Starts a fundraising campaign"
      },
      "togglePause()": {
        "notice": "Toggles the pause status using ternary operators"
      },
      "withdrawFromCampaign(bytes32,uint256)": {
        "notice": "Withdraws ETH from a certain campaign if deadline has not passed"
      }
    },
    "version": 1
  }
}