{
  "contractName": "HW4",
  "abi": [
    {
      "inputs": [],
      "stateMutability": "nonpayable",
      "type": "constructor"
    },
    {
      "anonymous": false,
      "inputs": [
        {
          "indexed": false,
          "internalType": "uint256",
          "name": "amount",
          "type": "uint256"
        },
        {
          "indexed": false,
          "internalType": "address[]",
          "name": "recipients",
          "type": "address[]"
        }
      ],
      "name": "DidDepositFunds",
      "type": "event"
    },
    {
      "anonymous": false,
      "inputs": [
        {
          "indexed": false,
          "internalType": "uint256",
          "name": "amount",
          "type": "uint256"
        },
        {
          "indexed": false,
          "internalType": "address",
          "name": "recipient",
          "type": "address"
        }
      ],
      "name": "DidWithdrawFunds",
      "type": "event"
    },
    {
      "anonymous": false,
      "inputs": [
        {
          "indexed": false,
          "internalType": "address",
          "name": "newOwner",
          "type": "address"
        }
      ],
      "name": "OwnershipTransferred",
      "type": "event"
    },
    {
      "inputs": [
        {
          "internalType": "uint256[]",
          "name": "array",
          "type": "uint256[]"
        }
      ],
      "name": "getMax",
      "outputs": [
        {
          "internalType": "uint256",
          "name": "",
          "type": "uint256"
        }
      ],
      "stateMutability": "pure",
      "type": "function"
    },
    {
      "inputs": [
        {
          "internalType": "address",
          "name": "newOwner",
          "type": "address"
        }
      ],
      "name": "transferOwnership",
      "outputs": [],
      "stateMutability": "nonpayable",
      "type": "function"
    },
    {
      "inputs": [],
      "name": "togglePause",
      "outputs": [],
      "stateMutability": "nonpayable",
      "type": "function"
    },
    {
      "inputs": [
        {
          "internalType": "address[]",
          "name": "recipients",
          "type": "address[]"
        }
      ],
      "name": "deposit",
      "outputs": [],
      "stateMutability": "payable",
      "type": "function"
    },
    {
      "inputs": [
        {
          "internalType": "uint256",
          "name": "amount",
          "type": "uint256"
        }
      ],
      "name": "withdraw",
      "outputs": [],
      "stateMutability": "nonpayable",
      "type": "function"
    },
    {
      "inputs": [],
      "name": "owner",
      "outputs": [
        {
          "internalType": "address",
          "name": "",
          "type": "address"
        }
      ],
      "stateMutability": "view",
      "type": "function"
    },
    {
      "inputs": [],
      "name": "paused",
      "outputs": [
        {
          "internalType": "bool",
          "name": "",
          "type": "bool"
        }
      ],
      "stateMutability": "view",
      "type": "function"
    },
    {
      "inputs": [
        {
          "internalType": "address",
          "name": "addr",
          "type": "address"
        }
      ],
      "name": "balanceOf",
      "outputs": [
        {
          "internalType": "uint256",
          "name": "",
          "type": "uint256"
        }
      ],
      "stateMutability": "view",
      "type": "function"
    }
  ],
  "bytecode": "0x608060405234801561001057600080fd5b506000805433610100026001600160a81b03199091161790556104d6806100386000396000f3fe60806040526004361061007b5760003560e01c80638da5cb5b1161004e5780638da5cb5b1461011a578063c4ae316814610150578063ca1314af14610165578063f2fde38b1461018557600080fd5b80630a2dabfe146100805780632e1a7d4d146100955780635c975abb146100b557806370a08231146100dd575b600080fd5b61009361008e3660046103d9565b6101c8565b005b3480156100a157600080fd5b506100936100b0366004610441565b610257565b3480156100c157600080fd5b5060005460ff1660405190151581526020015b60405180910390f35b3480156100e957600080fd5b5061010c6100f83660046103ab565b503360009081526001602052604090205490565b6040519081526020016100d4565b34801561012657600080fd5b5060005461010090046001600160a01b03166040516001600160a01b0390911681526020016100d4565b34801561015c57600080fd5b506100936102b2565b34801561017157600080fd5b5061010c610180366004610419565b6102e2565b34801561019157600080fd5b506100936101a03660046103ab565b600080546001600160a01b0390921661010002610100600160a81b0319909216919091179055565b60005460ff16156101d857600080fd5b60005b81811015610252576101ed8234610459565b6001600085858581811061021157634e487b7160e01b600052603260045260246000fd5b905060200201602081019061022691906103ab565b6001600160a01b031681526020810191909152604001600020558061024a81610479565b9150506101db565b505050565b60005460ff161561026757600080fd5b3360008181526001602052604080822054905181156108fc0292818181858888f1935050505015801561029e573d6000803e3d6000fd5b505033600090815260016020526040812055565b60005461010090046001600160a01b031633146102ce57600080fd5b6000805460ff19811660ff90911615179055565b600080805b83811015610359578185858381811061031057634e487b7160e01b600052603260045260246000fd5b9050602002013511156103475784848281811061033d57634e487b7160e01b600052603260045260246000fd5b9050602002013591505b8061035181610479565b9150506102e7565b509392505050565b60008083601f840112610372578182fd5b50813567ffffffffffffffff811115610389578182fd5b6020830191508360208260051b85010111156103a457600080fd5b9250929050565b6000602082840312156103bc578081fd5b81356001600160a01b03811681146103d2578182fd5b9392505050565b600080602083850312156103eb578081fd5b823567ffffffffffffffff811115610401578182fd5b61040d85828601610361565b90969095509350505050565b6000806020838503121561042b578182fd5b823567ffffffffffffffff811115610401578283fd5b600060208284031215610452578081fd5b5035919050565b60008261047457634e487b7160e01b81526012600452602481fd5b500490565b600060001982141561049957634e487b7160e01b81526011600452602481fd5b506001019056fea264697066735822122013b48f695415ae100b15f1913dbcc768e9fd83a386ee5ef8440bd4a3df23ce0c64736f6c63430008040033",
  "immutableReferences": {},
  "source": "//SPDX-License-Identifier: UNLICENSED\npragma solidity ^0.8.0;\n\ninterface IOwnable {\n    // Event emitted when ownership is transferred\n    event OwnershipTransferred(address newOwner);\n\n    // Transfers ownership to a new address\n    function transferOwnership(address newOwner) external;\n\n    // Returns the current owner of this contract\n    function owner() external view returns (address);\n}\n\ninterface IPausable {\n    // Toggles the pause status of the contract\n    // Hint: Who should be able to call this?\n    function togglePause() external;\n\n    // Returns if the contract is currently paused\n    function paused() external view returns (bool);\n}\n\ninterface ISplitter {\n    // Event emitted when funds are deposited and split\n    event DidDepositFunds(uint256 amount, address[] recipients);\n    // Event emitted when funds are withdrawn\n    event DidWithdrawFunds(uint256 amount, address recipient);\n\n    // The caller deposits some amount of Ether and splits it among recipients evenly\n    // This function cannot be called if the contract is paused\n    function deposit(address[] calldata recipients) external payable;\n\n    // The caller can withdraw a valid amount of Ether from the contract\n    // This function cannot be called if the contract is paused\n    function withdraw(uint256 amount) external;\n\n    // Returns the current balance of an address\n    function balanceOf(address addr) external view returns (uint256);\n}\n\ncontract HW4 is IOwnable, IPausable, ISplitter {\n    // solhint-disable ordering\n    function getMax(uint256[] calldata array) external pure returns (uint256) {\n        // Write your code here\n        uint256 max = 0;\n        for (uint256 i = 0; i < array.length; i++) {\n            if (array[i] > max) {\n                max = array[i];\n            }\n        }\n        return max;\n    }\n\n    // Declare any necessary variables here\n    bool _paused;\n    address _owner;\n    mapping(address => uint256) _transactions;\n\n    // What goes in here?\n    constructor() {\n        _paused = false;\n        _owner = msg.sender;\n    }\n\n    // Add any modifiers here\n\n    function transferOwnership(address newOwner) external override {\n        // Write your code here\n        _owner = newOwner;\n    }\n\n    function togglePause() external override {\n        // ...\n        require(msg.sender == _owner);\n        _paused = !_paused;\n    }\n\n    function deposit(address[] calldata recipients) external payable override {\n        require(!_paused);\n        for (uint256 i = 0; i < recipients.length; i++) {\n            _transactions[recipients[i]] = msg.value / recipients.length;\n        }\n    }\n\n    function withdraw(uint256 amount) external override {\n        require(!_paused);\n        payable(msg.sender).transfer(_transactions[msg.sender]);\n        _transactions[msg.sender] = 0;\n    }\n\n    function owner() external view override returns (address) {\n        return _owner;\n    }\n\n    function paused() external view override returns (bool) {\n        return _paused;\n    }\n\n    function balanceOf(address addr) external view override returns (uint256) {\n        return _transactions[msg.sender];\n    }\n}\n",
  "sourcePath": "/Users/niconeven/Desktop/itp356/hw4-nneven/contracts/HW4.sol",
  "compiler": {
    "name": "solc",
    "version": "0.8.4+commit.c7e474f2.Emscripten.clang"
  },
  "schemaVersion": "3.4.5",
  "updatedAt": "2022-02-28T23:24:48.467Z",
  "devdoc": {
    "kind": "dev",
    "methods": {},
    "version": 1
  },
  "userdoc": {
    "kind": "user",
    "methods": {},
    "version": 1
  }
}